:100000000C94662C0C94C6F00C949BF00C9470F03D
:100010000C9445F00C941AF00C94EFEF0C94C4EF90
:100020000C9499EF0C94972C0C94972C0C94972C7F
:100030000C94972C0C94ABA30C94972C0C94972CA9
:100040000C94972C0D9467060C94972C0C94972C79
:100050000C94972C0C94972C0C94CDDB0C9453F2AD
:100060000C94972C0D94942B0D94312C0C94972C6C
:100070000C94972C0C94972C0C94972C0C94972CF4
:100080000C94972C0C94972C0C94972C0C94972CE4
:100090000C94972C0C94972C0C94972C0C94972CD4
:1000A0000C94972C0C94972C0C94972C0C94972CC4
:1000B0000C94972C0C94972C0C94972C0C94972CB4
:1000C0000C94972C0C94972C0C94972C0C94972CA4
:1000D0000C94972C0C94972C0C94972C0C94972C94
:1000E0000C94972C99EC9CEC8BEC8FEC95ECD3EC6E
:1000F000A0ECA4ECAAECAEECB2ECB8ECBCECC0EC1E
:10010000D3ECC6ECCAECCEEC6FF174F179F183F16B
:100110008DF106F297F19FF1A7F1B1F1BBF1C5F1B5
:10012000D4F1DEF106F2E8F1F2F1FCF1F200F200B6
:10013000FE00FE00FE00000100010001EA000A01CD
:100140000A010A01FA00F80008010601F400DE00C5
:10015000EE00DE00E4000C01DE000401084AD73B9B
:100160003BCE016E84BCBFFDC12F3D6C74319ABD86
:1001700056833DDA3D00C77F11BED9E4BB4C3E91AA
:100180006BAAAABE000000803F05A84CCDB2D44E99
:10019000B93836A9020C50B9918688083CA6AAAA9B
:1001A0002ABE000000803F000D94CD030D94761010
:1001B0000D940A130D94C7110D949A040D94092CF3
:1001C0000D941A020D94F8000D94FC2B0D94CF0E93
:1001D0000D9467000D946F280D94D40E0D94F82B98
:1001E0000D948B150D9454280D94F42B0D948F15AC
:1001F0000D94D02B0D94CA2B0D94D20E0D945B2828
:100200000D9462280D94BD110D94062C0D94EC2BC9
:100210000D94E12B0D9469280D94002C0D94AB02E4
:100220000D943C030D9489014E414E494E49545959
:10023000494E46CDCCCC3D0AD7233C17B7D13877B1
:10024000CC2B329595E6241FB14F0A0000204100C7
:1002500000C84200401C4620BCBE4CCA1B0E5AAE11
:10026000C59D7400407A10F35A00A0724E18090020
:1002700010A5D4E80000E87648170000E40B54020B
:100280000000CA9A3B000000E1F505000080969846
:1002900000000040420F000000A086010000001096
:1002A0002700000000E803000000006400000000D8
:1002B000000A00000000000100000000002C76D8B9
:1002C00088DC674F0823DFC1DFAE59E1B1B796E59F
:1002D000E3E453C63AE651997696E8E6C28426EB03
:1002E000898C9B62ED407C6FFCEFBC9C9F40F2BA16
:1002F000A56FA5F490055A2AF75C936B6CF9676DAE
:10030000C11BFCE0E40D47FEF520E6B500D0ED9002
:100310002E0300943577050080841E080000204ECF
:100320000A000000C80C333333330F986E12831168
:1003300041EF8D2114893BE65516CFFEE6DB18D13F
:10034000844B381BF77C1D901DA4BBE42420328411
:10035000725E228100C9F124ECA1E53D27434F4D97
:100360004D554E49434154494F4E00445259525500
:100370004E004552524F525300494E464F0045439E
:10038000484F0020746F6F206C6F6E672065787423
:10039000727573696F6E2070726576656E746564D0
:1003A0000A0020636F6C6420657874727573696FDE
:1003B0006E2070726576656E7465640A0047322F30
:1003C00047332062616420706172616D657465728B
:1003D000730A00536C6565702E2E2E00205A3A2049
:1003E0000020593A200042656420583A20004D69A7
:1003F0006E6920322072656164792E0052657375D2
:100400006D696E67207072696E7400436C69636B0E
:1004100020746F20726573756D652E2E2E004E6FE1
:10042000206D6F76652E00456E642066696C6520D0
:100430006C6973740A00426567696E2066696C6551
:10044000206C6973740A004D3132350053442070BA
:1004500072696E74696E67206279746520004E6FF0
:1004600074205344207072696E74696E670A004686
:10047000696C652064656C657465643A0044656CFC
:100480006574696F6E206661696C65642C204669CD
:100490006C653A20006F70656E206661696C6564FA
:1004A0002C2046696C653A20006D0046696C616DD0
:1004B000656E7420757365643A20005374617473BB
:1004C0003A20002C204C6F6E67657374206A6F624F
:1004D0003A2000546F74616C2074696D653A200095
:1004E00053746174733A20002C204661696C656412
:1004F0003A20002C2046696E69736865643A2000D2
:100500005072696E74733A200053746174733A20A8
:10051000004578747275646572202573004D696EAC
:100520006920322072656164792E007E037903723E
:10053000036B035D036F66660044454255473A000E
:1005400042656420646F6E652E0020573A00426554
:10055000642068656174696E672E0042656420637B
:100560006F6F6C696E672E004D31343520533C69D6
:100570006E6465783E206F7574206F662072616EC0
:1005800067652028302D31290A0053657474696E1F
:10059000672054726176656C20416363656C657297
:1005A0006174696F6E3A200053657474696E6720D8
:1005B0005265747261637420416363656C65726136
:1005C00074696F6E3A200053657474696E672050C9
:1005D00072696E7420416363656C65726174696FE2
:1005E0006E3A200053657474696E67205072696EAC
:1005F0007420616E642054726176656C204163637F
:10060000656C65726174696F6E3A200042656420A2
:100610004C6576656C696E6720004661696C65643F
:1006200020746F20656E61626C6520426564204CA9
:100630006576656C696E670A00426564204C657674
:10064000656C20436F7272656374696F6E204D61D3
:10065000747269783A0041637469766520457874EC
:1006600072756465723A2000556E6B6E6F776E20FE
:10067000636F6D6D616E643A202200206673616362
:100680007469766500206F7400206F7470770020A5
:100690007332676100207332676200206F6C610003
:1006A000206F6C62002073740020656E00207473EC
:1006B0007465705F6176673A002063736163743AB2
:1006C00000206176675F73673A00207367743A00B1
:1006D00020737465616C746800207673656E3A00EF
:1006E0002F00206968723A002045303A0020667376
:1006F00061637469766500206F7400206F74707791
:1007000000207332676100207332676200206F6CD3
:100710006100206F6C62002073740020656E002001
:1007200074737465705F6176673A00206373616308
:10073000743A00206176675F73673A0020736774CC
:100740003A0020737465616C746800207673656E7E
:100750003A002F00206968723A00205A3A00206659
:100760007361637469766500206F7400206F747024
:100770007700207332676100207332676200206F58
:100780006C6100206F6C62002073740020656E0045
:100790002074737465705F6176673A0020637361DB
:1007A00063743A00206176675F73673A002073676D
:1007B000743A0020737465616C7468002076736508
:1007C0006E3A002F00206968723A0020593A0020E2
:1007D000667361637469766500206F7400206F74BE
:1007E00070770020733267610020733267620020E7
:1007F0006F6C6100206F6C62002073740020656E66
:10080000002074737465705F6176673A00206373CB
:100810006163743A00206176675F73673A00207302
:1008200067743A0020737465616C74680020767395
:10083000656E3A002F00206968723A0020583A002D
:10084000544D4332313330205374617475733A0A16
:10085000007A5F6D61783A20007A5F6D696E3A20A8
:1008600000795F6D61783A2000785F6D696E3A209B
:10087000005265706F7274696E6720656E64737480
:100880006F70207374617475730A004D6F76652004
:1008900059004D6F7665205A00457874727564650D
:1008A00072004D6F766520302E316D6D004D6F7684
:1008B0006520316D6D004D6F76652031306D6D00B6
:1008C0004D6F766520617869730045787472756440
:1008D0006572004D6F7665205A004D6F7665205920
:1008E000004D6F76652058004578747275646572A6
:1008F000004D6F7665205A004D6F76652059004D8A
:100900006F76652058004D6F76656D656E74004397
:100910006F6F6C646F776E0046616E2073706565F3
:10092000640046616E207370656564004265640012
:10093000426564004E6F7A7A6C65004E6F7A7A6C0D
:1009400065004D61696E005654726176206D696E66
:10095000005654726176206D696E0056547261764D
:10096000206D696E00566D696E00566D696E005699
:100970006D696E00566D6178204500566D61782076
:100980004500566D6178204500566D6178205A000B
:10099000566D6178205A00566D6178205A00566D68
:1009A0006178205900566D6178205900566D617844
:1009B000205900566D6178205800566D6178205896
:1009C00000566D61782058004D6F74696F6E00415C
:1009D0006D6178204500416D6178204500416D6171
:1009E00078205A00416D6178205A00416D6178206D
:1009F0005900416D6178205900416D61782058009F
:100A0000416D6178205800412D74726176656C00EB
:100A1000412D74726176656C00412D72657472614E
:100A2000637400412D726574726163740041636385
:100A3000656C00416363656C004D6F74696F6E0097
:100A4000205A00205900580020204D61783A20009B
:100A5000205A00205900580020204D696E3A20008D
:100A60004F6E20004F666600536F667420656E649B
:100A700073746F70733A200020643A0020693A0062
:100A800020703A0020643A0020693A0020703A0051
:100A900043290A0061626C656420286D696E2074C8
:100AA000656D702000436F6C6420657874727564A6
:100AB00065732061726520004B64200023646566C5
:100AC000696E65202044454641554C545F004B6992
:100AD000200023646566696E6520204445464155C3
:100AE0004C545F004B70200023646566696E65207E
:100AF0002044454641554C545F00504944204175BF
:100B0000746F74756E652066696E697368656421BB
:100B10002050757420746865206C617374204B706C
:100B20002C204B6920616E64204B6420636F6E73D0
:100B300074616E74732066726F6D2062656C6F777E
:100B400020696E746F20436F6E6669677572617499
:100B5000696F6E2E680A00504944204175746F74A5
:100B6000756E65206661696C6564212074696D65C8
:100B70006F75740A00504944204175746F74756E26
:100B800065206661696C6564212054656D706572CD
:100B9000617475726520746F6F20686967680A00F8
:100BA000204B643A2000204B693A2000204B703AD9
:100BB00020000A20436C617373696320504944200C
:100BC0000A002054753A2000204B753A2000206D11
:100BD00061783A2000206D696E3A200020643A2046
:100BE0000020626961733A20004F66667365747312
:100BF000206170706C696564004572723A20546FB0
:100C00006F206661722100546F6F206661722066EA
:100C1000726F6D207265666572656E636520706FB8
:100C2000696E740A003A20007A5F6D696E3A20207E
:100C30002D32207A5F6D61783A202035005A204F9E
:100C40006666736574200020617869732064726938
:100C50007665722063757272656E743A20007472E4
:100C600075650066616C7365002061786973207436
:100C7000656D7065726174757265207072657761FB
:100C8000726E207472696767657265643A2000202D
:100C90007072657761726E20666C616720636C6547
:100CA000617265640A0020737465616C74684368DE
:100CB0006F70206D61782073706565642073657452
:100CC00020746F20002064726976657220686F6DF1
:100CD000696E672073656E736974697669747920CB
:100CE00073657420746F20004E6F206361736520FC
:100CF0006C696768740A0053442063617264206FF2
:100D00006B0A006F70656E526F6F74206661696C5C
:100D100065640A00766F6C756D652E696E69742066
:100D20006661696C65640A00534420696E697420C9
:100D30006661696C0A006175746F25692E67004DE4
:100D40003234004D32332025730057726974696E56
:100D50006720746F2066696C653A20006F70656E5D
:100D6000206661696C65642C2046696C653A2000D8
:100D70006F70656E206661696C65642C2046696CD5
:100D8000653A200046696C652073656C656374651F
:100D9000640A002053697A653A200046696C652030
:100DA0006F70656E65643A20006F70656E206661D5
:100DB000696C65642C2046696C653A200020666980
:100DC0006C653A20004E6F7720002220706F730010
:100DD0002220706172656E743A2200535542524F60
:100DE0005554494E452043414C4C2074617267650F
:100DF000743A22004B494C4C45442E2000747279C1
:100E0000696E6720746F2063616C6C207375622D4E
:100E100067636F64652066696C65732077697468C1
:100E200020746F6F206D616E79206C6576656C73D0
:100E30002E204D4158206C6576656C2069733A0010
:100E40004572726F723A0043616E6E6F74206F70FC
:100E5000656E2073756264697220006563686F3A1D
:100E600000544845524D414C2052554E415741592E
:100E70002042454400546865726D616C2052756E65
:100E80006177617900544845524D414C2052554E8E
:100E90004157415920453100544845524D414C205D
:100EA00052554E41574159204530001FFFFFFFFF6B
:100EB000FFFF600000000001FF400000000000FF95
:100EC0008000000000007F83CF00000C303F87FFD0
:100ED00080000C301F867980000C000F8C30C78397
:100EE0008C30E78C30CFC7CC31F38C30DCECEC337A
:100EF000B98C30D86C6C33198C30D06C0C33198CA5
:100F000030D86C0C33198C30DC6C0E3B198C30CF24
:100F10007C079F198C30C77C038F194000000000AC
:100F20000002600000000000061FFFFFFFFFFFF847
:100F30002020506C616E6E65724275666665724205
:100F4000797465733A20002046726565204D656DA1
:100F50006F72793A2000436F6D70696C65643A2056
:100F60004A616E20323420323031380A00207C2031
:100F7000417574686F723A2028416C657068204F23
:100F8000626A6563747320496E632E2C204C756C05
:100F90007A426F7420476974205265706F73697468
:100FA0006F7279290A004A616E2032342032303162
:100FB0003831303A34373A353100204C617374207F
:100FC000557064617465643A2000312E312E350A03
:100FD000004D61726C696E0020536F6674776172A8
:100FE000652052657365740A0020576174636864F4
:100FF0006F672052657365740A002042726F776EC6
:10100000206F75742052657365740A0020457874EA
:1010100065726E616C2052657365740A00506F775B
:10102000657255700A0073746172740A0065727299
:101030006F722077726974696E6720746F206669B9
:101040006C650A00456E6473746F707320256320AD
:10105000256320256320256300205A3A0020593A51
:101060000020583A00656E6473746F70732068696D
:10107000743A2000446F6E6520736176696E672054
:1010800066696C652E0A004D3239007C3C3E5E2B51
:101090003D3F2F5B5D3B2C2A225C0020706F736903
:1010A00074696F6E206F7574206F662072616E6751
:1010B000652E0A003F50726F626520000A0A426581
:1010C00064204C6576656C20436F72726563746949
:1010D0006F6E204D61747269783A00202B000A43CC
:1010E0006F72726563746564204265642048656947
:1010F0006768742076732E2042656420546F706F89
:101100006C6F67793A0A00202B000A426564204818
:10111000656967687420546F706F67726170687971
:101120003A0A2020202B2D2D2D204241434B202DEB
:101130002D2B0A2020207C20202020202020202051
:1011400020207C0A204C207C20202020282B2920B5
:101150002020207C20520A2045207C202020202096
:101160002020202020207C20490A2046207C202886
:101170002D29204E20282B29207C20470A2054206E
:101180007C20202020202020202020207C20480A95
:101190002020207C20202020282D29202020207C79
:1011A00020540A2020207C202020202020202020C5
:1011B00020207C0A2020204F2D2D2046524F4E54B7
:1011C000202D2D2B0A2028302C30290A004D656156
:1011D0006E206F662073616D706C656420706F693E
:1011E0006E74733A200020643A200020623A200096
:1011F00045716E20636F656666696369656E7473B9
:101200003A20613A200052756E6E696E6720696EF1
:10121000204452592D52554E206D6F64650A004787
:101220003239204175746F20426564204C657665C3
:101230006C696E670A0028422961636B00284629A1
:10124000726F6E74002852296967687400284C29EF
:10125000656674003F4E756D626572206F66207022
:10126000726F626520706F696E7473206973206994
:101270006D706C61757369626C65202832206D69D0
:101280006E696D756D292E0A003F285629657262B8
:101290006F7365206C6576656C20697320696D706D
:1012A0006C61757369626C652028302D34292E0AB3
:1012B0000020746F6F206C6F6E6720657874727594
:1012C00073696F6E2070726576656E7465640A006E
:1012D00020636F6C6420657874727573696F6E201B
:1012E00070726576656E7465640A00486172646345
:1012F0006F6465642044656661756C742053657421
:1013000074696E6773204C6F616465640A002823FA
:10131000000028230000C8000000E80300000000CF
:1013200096430000964300009643000020420000D0
:10133000C8420000C8420000C8420000D243204515
:1013400000205A0020204D39303720580053746552
:1013500070706572206D6F746F7220637572726544
:101360006E74733A0A0020453000205A002059005C
:1013700020580053746570706572206472697665D8
:10138000722063757272656E743A0A0020204D38BF
:101390003531205A005A2D50726F6265204F6666B3
:1013A00073657420286D6D293A0A00204400204995
:1013B0000020204D333034205000204400204900CC
:1013C00020204D3330312050005049442073657443
:1013D00074696E67733A0A00204600204200204874
:1013E0000020204D3134352053004D617465726901
:1013F000616C2068656174757020706172616D65E3
:10140000746572733A0A0020204D34323020530044
:101410004175746F20426564204C6576656C696E19
:10142000673A0A00205A0020590020204D323036F9
:10143000205800486F6D65206F66667365743A0AC0
:1014400000204500205A002059002058002042006A
:1014500020540020204D3230352053004164766105
:101460006E6365643A20533C6D696E5F66656564C2
:10147000726174653E20543C6D696E5F7472617672
:10148000656C5F66656564726174653E20423C6DA3
:10149000696E5F7365676D656E745F74696D655FB6
:1014A0006D733E20583C6D61785F78795F6A657234
:1014B0006B3E205A3C6D61785F7A5F6A65726B3E65
:1014C00020453C6D61785F655F6A65726B3E0A001E
:1014D00020540020520020204D3230342050004152
:1014E0006363656C65726174696F6E2028756E69DF
:1014F00074732F7332293A20503C7072696E745F96
:10150000616363656C3E20523C7265747261637402
:101510005F616363656C3E20543C74726176656CF8
:101520005F616363656C3E0A00204500205A00201D
:10153000590020204D3230312058004D6178696DBE
:10154000756D20416363656C65726174696F6E20AF
:1015500028756E6974732F7332293A0A002045008A
:10156000205A0020590020204D3230332058004DA1
:101570006178696D756D2066656564726174657307
:101580002028756E6974732F73293A0A002045006C
:10159000205A0020590020204D3932205800537421
:1015A0006570732070657220756E69743A0A002048
:1015B000204D3230302044300A0020204D3230306F
:1015C0002044002044697361626C65640A004669C6
:1015D0006C616D656E742073657474696E67733ABF
:1015E0000020204D3134392043203B20556E697452
:1015F0007320696E2043656C736975730A0020203F
:10160000473231202020203B20556E6974732069B9
:101610006E206D6D0A0002436172642072656D6F09
:10162000766564004361726420696E7365727465E7
:101630006400290A002062797465733B2063726339
:10164000200053657474696E67732053746F7265FC
:1016500064202800202863616C63756C6174656484
:1016600029210A0020213D2000454550524F4D20A0
:10167000435243206D69736D61746368202D202887
:1016800073746F726564292000290A0020627974DE
:1016900065733B2063726320002073746F7265640E
:1016A0002073657474696E677320726574726965FE
:1016B000766564202800204D61726C696E3D563459
:1016C00030290A0028454550524F4D3D00454550B0
:1016D000524F4D2076657273696F6E206D69736D20
:1016E0006174636820002569730025696D20256990
:1016F00073002569682025696D20256973002569B7
:1017000064202569682025696D2025697300256995
:101710007920256964202569682025696D2025695F
:1017200073004E6F204C696E65204E756D62657258
:10173000207769746820636865636B73756D2C200E
:101740004C617374204C696E653A200053544F50BD
:101750005045442E20005072696E74657220737477
:101760006F707065642064756520746F2065727297
:101770006F72732E204669782074686520657272D6
:101780006F7220616E6420757365204D3939392080
:10179000746F20726573746172742E202854656DA5
:1017A0007065726174757265206973207265736506
:1017B000742E2053657420697420616674657220EC
:1017C00072657374617274696E67290A004E6F20C6
:1017D000436865636B73756D2077697468206C6905
:1017E0006E65206E756D6265722C204C617374207D
:1017F0004C696E653A2000636865636B73756D2094
:101800006D69736D617463682C204C617374204C36
:10181000696E653A20004C696E65204E756D626593
:1018200072206973206E6F74204C617374204C6950
:101830006E65204E756D6265722B312C204C617384
:1018400074204C696E653A20004D313130004D33C3
:1018500031004D383420582059205A204500534437
:101860002072656164206572726F720A00446F6E47
:1018700065207072696E74696E672066696C650AAE
:101880000020496E76616C696420657874727564B5
:10189000657220000000C0C0000010C10000000000
:1018A00000001F4300003C4300003743506C65615B
:1018B0007365207265736574005052494E544552E9
:1018C0002048414C544544005072696E7465722042
:1018D00068616C7465642E206B696C6C28292063C8
:1018E000616C6C6564210A00656E7175657565696A
:1018F0006E672022000000C0C000003C430000379B
:10190000430000484200004842000020420000001E
:10191000005761726E696E673A20486F6D696E6735
:101920002042756D702044697669736F72203C2087
:10193000310A000202040000000000000000000064
:101940000040000025430000454300003743FF01ED
:10195000014D36303020486F74656E6420746F6FAF
:1019600020636F6C6420746F206368616E6765200C
:1019700066696C616D656E740A001000C902100121
:101980002C014001220170011801B0010E01F0018B
:1019900004015002FA00B002F0003003E600D00368
:1019A000DC009004D2007005C800A006BE0000084C
:1019B000B400B009AA00D00BA000600E9600601120
:1019C0008C000015820020197800C01D6E00A02236
:1019D0006400B0275A00902C500000314600E034DB
:1019E0003C0010383200903A2800603C1E00A03DB8
:1019F0001400803E0A00203F00006265640A002C4B
:101A00002073797374656D2073746F7070656421D1
:101A1000204865617465725F49443A2000486561F9
:101A200074696E67206661696C6564204245440094
:101A300048656174696E67206661696C6564004819
:101A4000656174696E67206661696C6564004865EC
:101A50006174696E67206661696C65642045300059
:101A60001000AD0330016A0150022B0170030A011E
:101A70009004F500B005E500D006D800F007CE00D0
:101A80001009C500300ABE00500BB700700CB10041
:101A9000900DAB00B00EA600D00FA200F0109D007C
:101AA00010129900301395005014920070158E009A
:101AB00090168B00B0178700D0188400F0198100B1
:101AC000101B7E00301C7B00501D7900701E7600BC
:101AD000901F7300B0207000D0216E00F0226B00C8
:101AE00010246900302566005026630070276100CD
:101AF00090285E00B0295C00D02A5900F02B5600D7
:101B0000102D5400302E5100502F4E0070304B00DD
:101B100090314800B0324500D0334200F0343E00EE
:101B200010363B00303737005038330070392E0004
:101B3000903A2900B03B2300D03C1B00F03D11003F
:101B4000103F0100F03F00004572723A204D494EAF
:101B500054454D5020424544004D494E54454D504A
:101B600020747269676765726564004572723A2015
:101B70004D494E54454D50204531004572723A2032
:101B80004D494E54454D50204530004572723A2023
:101B90004D415854454D5020424544004D41585404
:101BA000454D5020747269676765726564004572BF
:101BB000723A204D415854454D50204531004572F0
:101BC000723A204D415854454D50204530004572E1
:101BD000726F722077726974696E6720746F204526
:101BE0004550524F4D210A005072696E742074693D
:101BF0006D653A2000000125311D40FF24301CFF97
:101C000045232F1B0A07FFFF040806FF06222B1A95
:101C1000FFFF043803FF36FFFFFFFFFFFF50726F27
:101C20007465637465642050696E0A00202F00207B
:101C300042403A0020403A006F6B00436F6F6C697E
:101C40006E6720646F6E652E0048656174696E670B
:101C500020646F6E652E0020573A004578747275C7
:101C6000646572202573004D696E692032207265AB
:101C70006164792E004C756C7A426F74204D696EE8
:101C8000692032204F66662E00205A3A0020593AC9
:101C90000020436F756E7420583A0020453A0020AA
:101CA0005A3A0020593A00583A004361703A454D7B
:101CB000455247454E43595F5041525345523A3180
:101CC0000A004361703A434153455F4C49474854C9
:101CD0005F4252494748544E4553533A300A0043F5
:101CE00061703A544F47474C455F4C4947485453FD
:101CF0003A300A004361703A534F465457415245B7
:101D00005F504F5745523A300A004361703A4C4594
:101D100056454C494E475F444154413A310A0043CD
:101D200061703A5A5F50524F42453A310A0043615E
:101D3000703A4155544F4C4556454C3A310A004390
:101D400061703A5052494E545F4A4F423A310A004C
:101D50004361703A50524F47524553533A300A004C
:101D60004361703A4155544F5245504F52545F545D
:101D7000454D503A310A004361703A454550524F43
:101D80004D3A310A004649524D574152455F4E4146
:101D90004D453A4D61726C696E20204649524D574F
:101DA0004152455F56455253494F4E3A312E312EDE
:101DB000352E37332045585452554445525F5459B7
:101DC00050453A4165726F73747275646572205341
:101DD0004F555243455F434F44455F55524C3A6817
:101DE000747470733A2F2F636F64652E616C657025
:101DF000686F626A656374732E636F6D2F646966C2
:101E0000667573696F6E2F4D41524C494E2050528A
:101E10004F544F434F4C5F56455253494F4E3A3102
:101E20002E30204D414348494E455F545950453A64
:101E30004C756C7A426F74204D696E692032204572
:101E4000585452554445525F434F554E543A3120F1
:101E5000555549443A65353530323431312D643485
:101E600036642D343231642D626133612D6132303C
:101E70003132366437393330660A002F2F200000A4
:101E80000000000000000000000000000000000052
:101E900000000000000000FE7FFE7F000000000048
:101EA00000007E004000400040F87E844084408472
:101EB00040F8408800840084008200000000000098
:101EC000000000F00FF81FF81FF81FF00FF00FF8D8
:101ED0001FF81FF81FE007C003800100000000008A
:101EE00000FE7F0E702664724E7A5E324C82413262
:101EF0004C7A5E724E26640E70FE7F000000000079
:101F000000FE7F0E70C663C24382411A58BA5D1A42
:101F1000588241C243C6630E70FE7F00000000007D
:101F20000000008808880810112022202210118843
:101F300008880810110000000000000000000000E8
:101F4000000000202210118808880810112022208B
:101F50002210118808000000000000000000004D61
:101F6000363030204230005072696E7420706175D6
:101F7000736564004D31323500004D3234005072CB
:101F8000696E742061626F72746564004E6F2053D5
:101F9000442063617264005072696E742066726FCF
:101FA0006D2053440053746F70207072696E74001A
:101FB000526573756D65207072696E74005061753D
:101FC0007365207072696E74004368616E67652086
:101FD00066696C616D656E740041626F7574204650
:101FE00069726D7761726500436F6E6669677572BD
:101FF0006174696F6E0054656D706572617475729D
:1020000065004D6F76656D656E740054756E650084
:10201000496E666F2073637265656E000000200074
:102020002300260029002C002F00320000010000B0
:1020300003010601090100060900FE06018902FEEE
:1020400020FFFE07FE06FE00000006000701060650
:10205000060200808080800080030303060103A045
:10206000A0A00507070600FF5050F850F850500593
:1020700009090600FE2070A8A07028A87020060894
:10208000080600FF40A84810204854080507070626
:1020900000FF60909060989068010303060203803F
:1020A00080800207070602FF408080808080400217
:1020B00007070602FF8040404040408005050506B6
:1020C00000008850F850880505050600002020F81B
:1020D00020200204040602FEC040408005010106E3
:1020E0000002F8020202060200C0C0040606060151
:1020F00000101020408080040606060100609090C9
:1021000090906003060606010040C0404040E00495
:1021100006060601006090102040F0040606060145
:1021200000F020601010E005060606000010305098
:1021300090F810040606060100F080E01010E0049C
:1021400006060601006080E0909060040606060125
:1021500000F0101020404004060606010060906068
:102160009090600406060601006090907010600276
:102170000505060200C0C000C0C00207070602FE37
:10218000C0C000C040408005050506000018608002
:102190006018050303060001F800F80505050600B0
:1021A00000C0300830C004070706010060901060CE
:1021B0004000400506060600007090A8B08070053B
:1021C0000606060000205088F888880506060600E6
:1021D00000F088F08888F004060606010060908010
:1021E000809060040606060100E090909090E00464
:1021F0000606060100F080E08080F0040606060175
:1022000000F080E080808004060606010060908077
:10221000B090600406060601009090F09090900344
:102220000606060100E040404040E00506060600C4
:102230000038101010906004060606010090A0C03F
:10224000A090900406060601008080808080F00542
:10225000060606000088D8A8A88888040606060195
:102260000090D0B090909005060606000070888817
:10227000888870040606060100E09090E0808004E3
:1022800007070601FF609090D0B0601004060606B4
:102290000100E09090E09090040606060100609036
:1022A00040209060050606060000F820202020202F
:1022B00004060606010090909090906004060606C1
:1022C0000100909090F06060050606060000888886
:1022D000A8A8D88805060606000088502020508847
:1022E0000506060600008888502020200406060601
:1022F0000100F010204080F0030606060100E08097
:10230000808080E0040606060100808040201010D6
:10231000030606060100E020202020E00503030656
:1023200000032050880501010600FEF802020206A3
:1023300002048040040404060100709090700406BA
:10234000060601008080E09090E00404040601008D
:102350007080807004060606010010107090907066
:1023600004040406010060B0C07004060606010003
:10237000205040E040400406060601FE6090907048
:1023800010600406060601008080E090909003062D
:10239000060601004000C04040E00308080601FEB8
:1023A000200060202020A040040606060100808056
:1023B000A0C0A090030606060100C040404040E0D7
:1023C000050404060000D0A8A8880404040601003F
:1023D000E090909004040406010060909060040670
:1023E000060601FEE09090E080800406060601FEED
:1023F000709090701010040404060100A0D080803A
:1024000004040406010070C030E004060606010062
:102410004040E04050200404040601009090907079
:1024200004040406010090906060050404060000A6
:1024300088A8A85004040406010090606090040677
:10244000060601FE9090907090600404040601005E
:10245000F02040F003070706010020404080404084
:10246000200107070602FF808080808080800307AC
:10247000070601008040402040408004020206011F
:102480000350A0FFFFFFFFFFFFFFFFFFFFFFFFFF66
:10249000FFFFFFFFFFFFFFFFFFFFFFFFFFFFFFFF4C
:1024A000FFFFFFFF0000000600070106060602000E
:1024B0008000808080800406060601FF2070A0A0B6
:1024C00070200507070600FF304840F04040F8053F
:1024D0000505060000A8508850A80506060600005D
:1024E0008850F820F8200107070602FF808080004E
:1024F0008080800407070601FF708060906010E014
:10250000030101060105A006070706000078849470
:10251000A494847803050506010160A06000E0052D
:1025200005050600002850A05028040303060100FA
:10253000F01010040101060102F006070706000072
:102540007884B4A4A48478040101060105F004038E
:10255000030601026090600507070600FF2020F8CF
:10256000202000F803050506010140A02040E003FB
:102570000505060101C0204020C002020206020437
:1025800040800405050601FF9090B0D08005060646
:1025900006000078E8E868282801010106020280A8
:1025A0000202020602FE408003050506010140C04A
:1025B0004040E003050506010140A04000E005059C
:1025C00005060000A0502850A00508080600FF409E
:1025D000C04050703078100508080600FF40C04029
:1025E00050680810380508080600FFC0204030F089
:1025F00030781004070706010020002060809060FA
:10260000050707060000402020507088880507074E
:10261000060000102020507088880507070600007B
:102620002050205070888805070706000028502099
:1026300050708888050707060000500020507088F9
:10264000880507070600002050205070888805067E
:102650000606000078A0F0A0A0B80408080601FE55
:1026600060908080906020400407070601004020B1
:10267000F080E080F00407070601002040F080E0D1
:1026800080F00407070601002050F080E080F0048D
:1026900007070601005000F080E080F003070706FE
:1026A00001008040E0404040E003070706010020B1
:1026B00040E0404040E003070706010040A0E04042
:1026C0004040E0030707060100A000E0404040E072
:1026D0000506060600007048E8484870040707062B
:1026E000010050A090D0B090900407070601004070
:1026F00020609090906004070706010020406090E1
:102700009090600407070601002050609090906050
:1027100004070706010050A060909090600407072E
:1027200006010050006090909060050505060000CD
:1027300088502050880408080601FF1070B0B0D0FF
:10274000D0E0800407070601004020909090906040
:10275000040707060100204090909090600407074E
:102760000601002050909090906004070706010039
:102770005000909090906005070706000010208898
:102780005020202004060606010080E09090E080A2
:102790000406060601006090A0A090A004070706AA
:1027A000010040200070909070040707060100208F
:1027B00040007090907004070706010020500070E0
:1027C00090907004070706010050A0007090907070
:1027D000040606060100500070909070040707067A
:1027E00001002050207090907005040406000070D5
:1027F000A8B0780406060601FE70808070204004B0
:10280000070706010040200060B0C07004070706FB
:10281000010020400060B0C07004070706010020DE
:10282000500060B0C070040606060100500060B0A1
:10283000C070030707060100804000C04040E0036D
:102840000707060100204000C04040E003070706DC
:10285000010040A000C04040E0030606060100A0C1
:1028600000C04040E004070706010030601070908F
:10287000906004070706010050A000E090909004CB
:1028800007070601004020006090906004070706DB
:1028900001002040006090906004070706010020BE
:1028A00050006090906004070706010050A000608F
:1028B000909060040606060100500060909060054C
:1028C00005050600002000F80020040404060100AD
:1028D00070B0D0E0040707060100402000909090FF
:1028E00070040707060100204000909090700407D4
:1028F0000706010020500090909070040606060123
:10290000005000909090700409090601FE204000DC
:102910009090907090600408080601FE8080E0901E
:1029200090E080800408080601FE500090909070AE
:10293000906000060900FE070192032120FFFF08B6
:10294000FF07FF00000006000001070706020080E5
:10295000808080800080030202060105A0A0050798
:10296000070600005050F850F850500507070600C1
:10297000002078A07028F020050707060000C0C8D6
:1029800010204098180507070600006090A040A896
:102990009068020303060104C04080030707060194
:1029A000002040808080402003070706010080400F
:1029B000202020408005050506000120A870A820E1
:1029C0000505050600012020F82020020303060269
:1029D000FFC04080050101060003F8020202060262
:1029E00000C0C0050505060001081020408005074D
:1029F000070600007088888888887003070706012A
:102A00000040C040404040E00507070600007088D5
:102A100008708080F8050707060000F810201008ED
:102A200008F005070706000010305090F810100558
:102A30000707060000F880F00808887005070706F9
:102A40000000708080F0888870050707060000F895
:102A500008102020202005070706000070888870D5
:102A60008888700507070600007088887808087055
:102A7000020505060200C0C000C0C002060606022C
:102A8000FFC0C000C04080040707060000102040BF
:102A900080402010050303060002F800F804070731
:102AA0000601008040201020408005070706000036
:102AB00070880810200020050707060000708808AD
:102AC00068A8A870050707060000708888F888883D
:102AD00088050707060000F08888F08888F0050759
:102AE0000706000070888080808870050707060050
:102AF00000F08888888888F0050707060000F880BD
:102B000080F08080F8050707060000F88080F080DC
:102B10008080050707060000708880B888887005E7
:102B20000707060000888888F88888880107070654
:102B300002008080808080808005070706000038C2
:102B40001010101090600507070600008890A0C0C4
:102B5000A09088050707060000808080808080F8AC
:102B600005070706000088D8A88888888805070711
:102B70000600008888C8A89888880507070600000E
:102B800070888888888870050707060000F08888A4
:102B9000F080808005070706000070888888A8906C
:102BA00068050707060000F08888F0A090880507F0
:102BB00007060000788080700808F0050707060007
:102BC00000F8202020202020050707060000888824
:102BD00088888888700507070600008888888888A4
:102BE00050200507070600008888888888A85005B7
:102BF00007070600008888502050888805070706C8
:102C0000000088888850202020050707060000F86B
:102C10000810204080F8030707060100E08080804C
:102C20008080E005050506000180402010080307AC
:102C300007060100E02020202020E0050303060015
:102C400004205088050101060000F8020202060275
:102C5000058040050505060000700878887805079E
:102C6000070600008080B0C88888F00505050600CA
:102C700000708080887005070706000008086898C3
:102C80008888780505050600007088F880700507BB
:102C9000070600003048E0404040400506060600B8
:102CA000FF7088887808700507070600008080B0EC
:102CB000C88888880107070602008000808080801D
:102CC000800308080601FF200020202020A04004E7
:102CD0000707060000808090A0C0A09003070706A9
:102CE0000100C04040404040E0050505060000D01E
:102CF000A8A8A8A8050505060000B0C8888888050A
:102D0000050506000070888888700506060600FF25
:102D1000F08888F080800506060600FF78888878AD
:102D20000808050505060000B0C880808005050577
:102D300006000070807008F004070706000040409D
:102D4000E040404030050505060000888888986806
:102D50000505050600008888885020050505060041
:102D6000008888A8A8500505050600008850205056
:102D7000880506060600FF8888887808700505051E
:102D8000060000F8102040F8030707060100204065
:102D9000408040402001070706020080808080803C
:102DA00080800307070601008040402040408005E6
:102DB0000202060002689000000006000000000009
:102DC00006000000000006000000000006000000F1
:102DD00000000600000000000600000000000600E1
:102DE00000000000060000000000060000000000D7
:102DF00006000000000006000000000006000000C1
:102E000000000600000000000600000000000600B0
:102E100000000000060000000000060000000000A6
:102E20000600000000000600000000000600000090
:102E30000000060000000000060000000000060080
:102E40000000000006000000000006000000000076
:102E50000600000000000600000000000600000060
:102E60000000060000000000060000000000060050
:102E70000000000006000000000006000000000046
:102E80000600000107070602008000808080808025
:102E90000507070600002070A8A0A87020050707F6
:102EA000060000304040E04050A80505050600003F
:102EB0008870507088050707060000885020F820A9
:102EC000F8200107070602008080800080808005CE
:102ED000080806000030482050502090600301018F
:102EE000060107A0050707060000F888B8B8B888EB
:102EF000F8050707060001700878887800F80505CE
:102F0000050600012850A05028050303060001F81B
:102F100008080202020602064080050707060000B4
:102F2000F888A88898A8F8050101060006F80404A6
:102F3000040600036090906005070706000020204B
:102F4000F8202000F804050506000360902040F0FA
:102F5000030505060003E020E020E002020206026D
:102F60000640800508080600FF8888888898E88061
:102F7000800507070600007898987818181802024C
:102F800002060202C0C00202020602FF40800305E0
:102F90000506000340C04040E00507070600017039
:102FA0008888887000F8050505060001A0502850A3
:102FB000A00507070600008890A858B8080805076C
:102FC000070600008890B8489820380508080600D1
:102FD00000C040C048D83808080507070600002090
:102FE000002040808870050808060000402000701E
:102FF00088F888880508080600001020007088F806
:1030000088880508080600002050007088F8888825
:103010000508080600006890007088F88888050890
:10302000080600005000708888F88888050808069F
:1030300000002050207088F88888050707060000E7
:103040003860A0B8E0A0B80508080600FF708880C6
:103050008088702060050808060000402000F88085
:10306000F080F8050808060000081000F880F080DD
:10307000F8050808060000205000F880F080F805E8
:1030800007070600005000F880F080F803080806E3
:103090000100804000E0404040E0030808060100D5
:1030A000204000E0404040E003080806010040A046
:1030B00000E0404040E0030707060100A000E040B8
:1030C0004040E0050707060000704848E84848709F
:1030D00005080806000068900088C8A898880508B8
:1030E0000806000040207088888888700508080657
:1030F0000000102070888888887005080806000085
:1031000020500070888888700508080600006890C4
:1031100000708888887005080806000050007088D4
:1031200088888870050505060001885020508805AC
:1031300008080600FF1070A8A8A8A8704005080895
:1031400006000040208888888888700508080600E6
:1031500000102088888888887005080806000020EC
:10316000500088888888700508080600005000888C
:10317000888888887005080806000010208850207C
:103180002020200509090600FFC040704848704013
:1031900040E00408080601FF609090A09090E08055
:1031A00005080806000040200070087888780508A7
:1031B00008060000102000700878887805080806C6
:1031C0000000205000700878887805080806000084
:1031D000689000700878887805070706000050009E
:1031E00070087888780508080600002050207008CC
:1031F000788878050606060000D02878A0A8500533
:1032000006060600FF70808870206005080806002A
:10321000004020007088F880700508080600001043
:1032200020007088F8807005080806000020500013
:103230007088F8807005070706000050007088F855
:10324000807003080806010080400040C04040E054
:1032500003080806010020400040C04040E0030889
:103260000806010040A00040C04040E003070706F8
:103270000100A00040C04040E0050707060000A094
:1032800040A010788870050808060000689000B01B
:10329000C8888888050808060000402000708888D3
:1032A0008870050808060000102000708888887063
:1032B00005080806000020500070888888700508FE
:1032C0000806000068900070888888700507070667
:1032D00000005000708888887005050506000120F0
:1032E00000F800200507070600FF1070A8A8A870C6
:1032F0004005080806000040200088888898680576
:1033000008080600001020008888889868050808CA
:103310000600002050008888889868050707060086
:1033200000500088888898680509090600FF102069
:1033300000888888F808700407070601FFC040600D
:10334000506040E00508080600FF50008888887833
:10335000087000060900FE000000000001090008D6
:10336000FE000005080806000040F0C8888898782C
:1033700010050808060000C0F88888888888F805C5
:1033800005050600012030F8302005080806000079
:103390002070F820202020E00509090600FF207099
:1033A000A8A8B8888870200509090600FFE080C039
:1033B000B0A8283028280509090600FFF8A8888841
:1033C000888888A8F8050A0A0600FE205050505048
:1033D00088A8A8887003030306000340A0400105E5
:1033E0000800FF060121023520FFFF07FF06FF0945
:1033F0000050221656808080800080153353A0A094
:10340000A00257575050F850F850500257572070AC
:10341000A07028702013355580A040A02002475787
:1034200040A0A040A0A050251353808080122656B3
:10343000408080808040122656804040404080027C
:1034400045559060F060900255552020F8202011DD
:103450003353604080044151F011335340E0400247
:10346000465610102040808012365640A0A0A0A0E2
:103470004012365640C0404040E002465660901030
:103480006080F0024656F0206010906002465620A0
:1034900060A0F02020024656F080E01090600246C6
:1034A000566080E0909060024656F0102020404028
:1034B0000246566090609090600246566090907010
:1034C0001060122555C0C000C0C0113656606000A3
:1034D000604080123656204080804020034353F0E5
:1034E00000F012365680402020408012365640A010
:1034F00020400040015858304898A8A89040300219
:103500004656609090F09090024656E090E0909081
:10351000E0024656609080809060024656E09090AF
:103520009090E0024656F080E08080F0024656F02F
:1035300080E0808080024656609080B090600246B5
:10354000569090F0909090123656E040404040E007
:1035500002465670202020A04002465690A0C0A0EF
:10356000A0900246568080808080F002465690F0FF
:10357000F090909002465690D0F0B0B0900246562F
:10358000609090909060024656E09090E0808001BC
:103590004757609090D0B06010024656E09090E09F
:1035A0009090024656609040209060123656E0405F
:1035B000404040400246569090909090600246569F
:1035C000909090906060024656909090F0F090023B
:1035D0004656909060609090025656888850202001
:1035E00020024656F010204080F0123656E08080CF
:1035F0008080E0024656808040201010123656E04F
:1036000020202020E016325240A0014151F0162225
:10361000528040024454709090700246568080E080
:103620009090E01234546080806002465610107012
:1036300090907002445460B0C060024656205040E2
:10364000E040400145556090701060024656808011
:10365000E09090901236564000C04040E01137573D
:103660002000202020A040024656808090E09090CC
:10367000123656C040404040E0025454D0A8A8A89A
:10368000024454E090909002445460909060014550
:1036900055E090E080800145557090701010024414
:1036A00054A0D0808012345460C020C002465640DE
:1036B00040E040502002445490909070123454A046
:1036C000A0A04002545488A8A850024454906060BE
:1036D000900145559090709060024454F02040F065
:1036E000024757304020C02040302216568080804C
:1036F000808080024757C02040304020C0064252A0
:1037000050A0FFFFFFFFFFFFFFFFFFFFFFFFFFFFD7
:10371000FFFFFFFFFFFFFFFFFFFFFFFFFFFFFFFFB9
:10372000FFFFFF0900502216568000808080800134
:1037300046562070A0A070200246562050E040500F
:10374000A002555588705070880256568850F8204F
:10375000F8202217578080800080808002475770B1
:1037600080E0907010E0173151A002565670A8C842
:10377000C8A87014355560A06000E003435350A002
:1037800050123353E02020143151E002565670E8B5
:10379000D8E8D870173151E015335340A0401235A6
:1037A0005540E04000E014355540A02040E014357D
:1037B00055C020C020C0162252408001455590902F
:1037C00090E08002565678E8E86828282411518055
:1037D000112252408014355540C04040E014355508
:1037E00040A04000E0034353A050A0024757808010
:1037F00080A060F0200247578080A0D01020700287
:10380000475780408060A0F020123656400040802C
:10381000A04002475740206090F090900247572008
:10382000406090F0909002475760906090F09090C8
:1038300002475750A06090F0909002475790006068
:1038400090F0909002475760906090F09090024600
:103850005670A0A0F0A0B0014757609080809060A3
:10386000400247574020F080E080F0024757204058
:10387000F080E080F00247576090F080E080F00236
:1038800047579000F080E080F01237578040E040CA
:103890004040E01237572040E0404040E0123757A8
:1038A00040A0E0404040E0123757A000E0404040D8
:1038B000E00256567048E848487002475750A090BA
:1038C000D0B090900247574020609090906002479F
:1038D00057204060909090600247576090609090B1
:1038E000906002475750A0609090906002475790B8
:1038F000006090909060123353A040A00246567032
:10390000B0B0D0D0E0024757402090909090600235
:103910004757204090909090600247576090909059
:103920009090600247579000909090906002575797
:103930001020885020202002465680E09090E080A1
:103940000246566090A0A090A00247574020007009
:103950009090700247572040007090907002475737
:103960002050007090907002475750A000709090C7
:1039700070024656500070909070024757609060F9
:1039800070909070025454F068B078113555608092
:1039900080604002475740200060B0C06002475737
:1039A00020400060B0C06002475760900060B0C027
:1039B00060024656500060B0C06012375780400029
:1039C000C04040E0123757204000C04040E012376E
:1039D0005740A000C04040E0123656A000C0404012
:1039E000E0024757A040A01070906002475750A0D7
:1039F00000E0909090024757402000609090600255
:103A000047572040006090906002475760900060E8
:103A100090906002475750A0006090906002465618
:103A20009000609090601235554000E000400244E4
:103A30005470B0D0E0024757402000909090700240
:103A40004757204000909090700247576090009038
:103A500090907002465690009090907001485820C7
:103A6000400090907090600147578080E090E08027
:103A7000800147579000909070906001050700FE0C
:103A80000500FB01F220FFFE05FE05FE02004002DC
:103A900015258080800080053242A0A00255655027
:103AA000F850F8500146562070C030E020025565AD
:103AB0009010204048025565608068906805122289
:103AC000808002253540808080400225358040403E
:103AD0004080043343A040A003334340E040012230
:103AE000324080043141E002112180025565081006
:103AF0002040800245556090909060022535C0407E
:103B0000404040024555E0106080F0024555E0100D
:103B10006010E00245552060A0F020024555F0807D
:103B2000E010E00245556080E09060024555F010DD
:103B3000204040024555609060906002455560907D
:103B400070106003132380008002142480008080A2
:103B50000235452040804020033343E000E0023539
:103B6000458040204080024555E0106000400255ED
:103B7000657088B8A870024555609090F090024535
:103B800055E090E090E0023545608080806002451D
:103B900055E0909090E0023545E080E080E002350D
:103BA00045E080E080800245557080B0907002450D
:103BB000559090F09090023545E0404040E002453D
:103BC00055301010906002455590A0C0A09002356D
:103BD0004580808080E002556588D8A888880245A5
:103BE0005590D0B0909002455560909090600245FD
:103BF00055E09090E08001465660909090601002F1
:103C00004555E09090E09002455570806010E002CC
:103C10003545E0404040400245559090909060020C
:103C200045559090A0A04002556588A8A8A85002CC
:103C300045559090609090024555909070106002AC
:103C40003545E0204080E0022535C0808080C002FC
:103C500055658040201008022535C0404040C00511
:103C6000324240A0024151F00522328040024454C9
:103C70007090907002455580E09090E0023444606E
:103C8000808060024555107090907002445460B07E
:103C9000C0600235452040E040400046567090909C
:103CA00070106002455580E09090900215258000CC
:103CB00080808000273740004040404080024555CA
:103CC0008090A0E09002152580808080800254645E
:103CD000F0A8A8A8024454E0909090024454609048
:103CE0009060004656E09090E080800046567090CC
:103CF00090701010023444A0C0808002445470C000
:103D000030E002354540E04040200244549090901D
:103D1000700244549090A040025464A8A8505002ED
:103D20003444A04040A0004656909090701060022D
:103D30004454F02040F00235456040804060021558
:103D4000258080808080023545C0402040C00542EB
:103D50005250A0FFFFFFFFFFFFFFFFFFFFFFFFFF2E
:103D6000FFFFFFFFFFFFFFFFFFFFFFFFFFFFFFFF63
:103D7000FFFFFFFF020040FFFFFFFFFFFFFFFFFF0E
:103D8000FFFFFFFFFFFFFFFFFFFFFFFFFFFFFFFF43
:103D9000FFFFFFFFFFFFFFFFFFFFFFFFFFFFFFFF33
:103DA000FFFFFFFFFFFFFFFFFFFFFFFFFFFFFFFF23
:103DB000FFFFFFFFFFFFFFFFFFFFFFFFFFFFFFFF13
:103DC000FFFFFFFFFFFFFFFFFFFFFFFFFFFFFFFF03
:103DD000FFFFFFFFFFFF01060D00FE09016602D68F
:103DE00020FFFE0BFE0AFE0D006022196980808014
:103DF000808080800080183363A0A0A003576750A4
:103E000050F850F850500259692078A0A070282826
:103E1000F02002596948A85010204050A89002583C
:103E20006840A0A040A0989068281363808080110B
:103E30003B6B2040408080808080404020113B6B65
:103E4000804040202020202040408006556520A84A
:103E500070A8200455652020F820201133636040AD
:103E600080065161F811336340E040025969080847
:103E7000101020404080800259692050888888882E
:103E80008850200259692060A02020202020F802BC
:103E900059697088880810204080F8025969F8082C
:103EA0001020700808887002596910103050509026
:103EB000F81010025969F88080B0C80808887002AC
:103EC000596970888080F088888870025969F8087C
:103ED00010102020404040025969708888887088FE
:103EE00088887002596970888888780808887011F5
:103EF000386840E040000040E04011386840E04051
:103F00000000604080025969081020408040201065
:103F100008045464F80000F8025969804020100831
:103F200010204080025969708888081020200020E5
:103F300002596970888898A8A8B0807802596920C9
:103F400050888888F8888888025969F048484870FD
:103F5000484848F002596970888080808080887065
:103F6000025969F048484848484848F0025969F8F9
:103F7000808080F0808080F8025969F8808080F02D
:103F800080808080025969708880808098888870DD
:103F900002596988888888F888888888123969E091
:103FA00040404040404040E0025969381010101035
:103FB00010109060025969888890A0C0A0908888ED
:103FC0000259698080808080808080F802596988E9
:103FD00088D8A8A88888888802596988C8C8A8A8E5
:103FE0009898888802596970888888888888887035
:103FF000025969F0888888F080808080015A6A7050
:10400000888888888888A87008025969F088888814
:10401000F0A09088880259697088808070080888AC
:1040200070025969F82020202020202020025969A0
:1040300088888888888888887002596988888888EC
:10404000505050202002596988888888A8A8A8A8BC
:104050005002596988885050205050888802596908
:10406000888850502020202020025969F80810101C
:1040700020404080F8113B6BE08080808080808011
:104080008080E002596980804040201010080811AB
:104090003B6BE0202020202020202020E0085363DC
:1040A000205088015161F82A2262804002566670D1
:1040B0000878889868025969808080F088888888A4
:1040C000F002566670888080887002596908080876
:1040D0007888888888780256667088F880887002A8
:1040E000596930484040F04040404000586870886E
:1040F000888878088870025969808080B0C888886C
:1041000088881238684000C040404040E0004A6A59
:10411000100030101010109090600259698080805B
:1041200090A0C0A09088123969C0404040404040F3
:1041300040E0025666D0A8A8A8A888025666B0C873
:1041400088888888025666708888888870005868D1
:10415000F0888888F080808000586878888888781F
:10416000080808025666B0C88080808002566670D3
:1041700088601088700258684040F04040404830E5
:1041800002566688888888986802566688888850AB
:1041900050200256668888A8A8A850025666885003
:1041A000202050880058688888889868088870029D
:1041B0005666F810204080F8015B6B182020202004
:1041C000C020202020182219698080808080808073
:1041D0008080015B6BC0202020201820202020C080
:1041E00008536348A890FFFFFFFFFFFFFFFFFFFF9B
:1041F000FFFFFFFFFFFFFFFFFFFFFFFFFFFFFFFFCF
:10420000FFFFFFFFFFFFFF0D0060221969800080A4
:104210008080808080800358682070A8A0A0A8704B
:104220002002596930484040E0404048B00356669B
:1042300088705050708802596988885050F820F86A
:104240002020221969808080800080808080124A2E
:104250006A609080609090601090601A3262A0A0B6
:104260000359697088A8D8C8D8A88870045767709F
:104270000878887800F80356662850A0A0502804D3
:104280005363F80808163161E00359697088E8D86B
:10429000D8E8D888700A5161F8174464609090603B
:1042A0000357672020F8202000F807356540A0203C
:1042B00040E007356540A04020C02A2262408000CF
:1042C00058688888888898E8808002596978E8E882
:1042D000E8E868282828262161C02022624080075B
:1042E000356540C04040E00457677088888870009A
:1042F000F8035666A050282850A0025A6A40C040D1
:1043000040E00818283808025A6A40C04040E010CF
:1043100028081038025A6A40A04020A048182838BF
:1043200008025969200020204080888870025A6A5B
:1043300040200020508888F88888025A6A1020009F
:1043400020508888F88888025A6A304800205088AF
:1043500088F88888025A6A28500020508888F8888F
:1043600088025A6A50500020508888F88888025A7B
:104370006A20502020508888F8888802596958A0FF
:10438000A0A0B0E0A0A0B8005B6B708880808080A7
:104390008088702040025A6A402000F88080F080B7
:1043A00080F8025A6A102000F88080F08080F802BD
:1043B0005A6A304800F88080F08080F8025A6A50CB
:1043C0005000F88080F08080F8123A6A804000E067
:1043D0004040404040E0123A6A204000E040404007
:1043E0004040E0124A6A609000E04040404040E0B7
:1043F000123A6AA0A000E04040404040E002596903
:10440000F0484848E8484848F0025A6A285000886E
:1044100088C8A8988888025A6A40200070888888CE
:10442000888870025A6A102000708888888888708E
:10443000025A6A30480070888888888870025A6AF0
:1044400028500070888888888870025A6A50500006
:104450007088888888887003556588502050880146
:104460005B6B08709898A8A8A8C8C87080025A6AA0
:1044700040200088888888888870025A6A10200046
:1044800088888888888870025A6A304800888888B6
:1044900088888870025A6A5050008888888888887E
:1044A00070025A6A1020008888502020202002596B
:1044B0006980F0888888F0808080025969609090D7
:1044C000A0A0908888B002596940200070087888C0
:1044D0009868025969102000700878889868025915
:1044E0006930480070087888986802596928500037
:1044F0007008788898680259695050007008788868
:104500009868025A6A3048300070087888986802C3
:104510005666702870A0A8500058687088808088FF
:104520007020400259694020007088F8808870022D
:1045300059691020007088F88088700259693048E5
:10454000007088F88088700259695050007088F8AF
:10455000808870123969804000C040404040E012BD
:104560003969204000C040404040E01249696090F5
:1045700000C040404040E0123969A0A000C0404067
:104580004040E0025A6A5020601070888888887025
:10459000025969285000B0C8888888880259694043
:1045A00020007088888888700259691020007088FF
:1045B00088888870025969304800708888888870B7
:1045C000025969285000708888888870025969509B
:1045D0005000708888888870035767202000F80092
:1045E0002020015868087098A8A8C87080025969EE
:1045F00040200088888888986802596910200088BF
:10460000888888986802596930480088888888981E
:1046100068025969505000888888889868005B6BE8
:104620001020008888889868088870005A6A8080FE
:10463000B0C88888C8B08080005B6B505000888804
:1046400088986808887000000000000000000000E2
:10465000000000000000000000000000000000005A
:104660000000000000000000000C0000000000003E
:10467000000C00000000000000120000000000001C
:1046800000230000000000000021000000000000E6
:10469000004C800000000000005E80000000000070
:1046A000009240000000000000A140000000000057
:1046B0000121200000000000027F900000000000A7
:1046C000020010000000000007FFF80000000000DA
:1046D00004000800000000000800040000000000C2
:1046E00008000600000000001000020000000000AA
:1046F000301E010000000000207F8100000000004B
:1047000041FFE0800000000043FCF080000000005A
:10471000873B7840000000018EDBFC600000000158
:104720000FEBCC20000000021FEDB61000000002CD
:104730001FDEB6100000000439CD7F080000000421
:1047400036E0FF08000000087EC0BB8400000018AF
:104750007F005D86000000107FC0ED820000002019
:104760003CC07301000000203B337F01000000705B
:104770001BE77E03800000C81DEEDE04C000008839
:104780000FDEDC04400001240FDF3C09200001267D
:1047900007DBF8192000027203E7F01390000251C2
:1047A00001FFE02290000489007F80244800090472
:1047B000801E004824000BFE400000DFF4001000C3
:1047C0004000008002001FFFFFFFFFFFFE0000000F
:1047D00000000000000000000000000000000000D9
:1047E0000000000000001022103C3C0E1F001022B0
:1047F00010042211040010221008221104001022BB
:1048000010083C1104001022101022110400102284
:104810001020221104001E1C1E3C3C0E040000004F
:104820000000000000000000000000000000000088
:104830000000000000000000000000000000000078
:104840000000000000000000000000000000000068
:104850000000000000000000000000000000000058
:104860000000000000000000000000000000000048
:104870000000000000000000000000000000000038
:1048800000000000253164002532640025336400F7
:10489000253464002535640025366400202020205E
:1048A000001A0020202020001A0020253032643A0F
:1048B0002530326400253033643A253032640025D7
:1048C00020200025200056652D6A65726B00566514
:1048D0002D6A65726B0056652D6A65726B00567A9B
:1048E0002D6A65726B00567A2D6A65726B00567977
:1048F0002D6A65726B0056792D6A65726B00567968
:104900002D6A65726B0056782D6A65726B00567859
:104910002D6A65726B0056782D6A65726B004D6F5B
:1049200074696F6E004573746570732F6D6D00450B
:1049300073746570732F6D6D005A73746570732F87
:104940006D6D005A73746570732F6D6D00597374BB
:104950006570732F6D6D005973746570732F6D6D75
:10496000005873746570732F6D6D005873746570A3
:10497000732F6D6D004D6F74696F6E004F6666002A
:104980004F6E2000456E6473746F702061626F72A9
:10499000740053746570732F6D6D004A65726B00FF
:1049A000416363656C65726174696F6E0056656C16
:1049B0006F63697479005A204F66667365740041AD
:1049C0006476616E6365642053657474696E6773A1
:1049D0000043616E6E6F7420656E7465722073752E
:1049E000626469723A2000022E2E004D61696E00E9
:1049F00020204E6F7A7A6C653A2000200042616375
:104A00006B004D696E696D756D2054656D70206920
:104A100073203132302E0048656174696E672066FC
:104A200061696C65640045787472756465206D6FAA
:104A3000726500526573756D65207072696E7400E1
:104A4000524553554D45204F5054494F4E533A000F
:104A500020204E6F7A7A6C653A20006368616E6739
:104A600065006F66207468652066696C616D656EAF
:104A700074005761697420666F7220737461727478
:104A8000005052494E542050415553454400202077
:104A90004E6F7A7A6C653A2000200066696C616D11
:104AA000656E7420756E6C6F616400576169742067
:104AB000666F72005052494E542050415553454440
:104AC0000020204E6F7A7A6C653A20002000506CEE
:104AD0006561736520776169742E2E2E00486561CB
:104AE00074696E67206E6F7A7A6C65005052494E19
:104AF00054205041555345440020204E6F7A7A6C23
:104B0000653A2000200068656174206E6F7A7A6CC7
:104B1000652E00507265737320627574746F6E2019
:104B2000746F005052494E54205041555345440033
:104B300020204E6F7A7A6C653A2000746F20636F84
:104B40006E74696E75652E2E2E00616E6420707213
:104B500065737320627574746F6E00496E7365724D
:104B6000742066696C616D656E74005052494E54D4
:104B7000205041555345440020204E6F7A7A6C6591
:104B80003A2000200066696C616D656E74206C6F60
:104B90006164005761697420666F72005052494E1B
:104BA00054205041555345440020204E6F7A7A6C72
:104BB000653A2000200066696C616D656E74206541
:104BC000787472756465005761697420666F72004D
:104BD0005052494E542050415553454400746F2063
:104BE000726573756D65005761697420666F722018
:104BF0007072696E74005052494E542050415553A2
:104C000045440024F4D43050C38E20C2A240178201
:104C10008B7011127A910D816CD90AA861E108C7D5
:104C2000586607615143061E4B5D05C145A7041A2E
:104C3000411104093D9803713931034036DB0265A7
:104C4000339102D4305402802E1D02632CEE017584
:104C50002AC501B028A001102781018F2564012BEE
:104C6000244B01E0223401AC211F018D200D018075
:104C70001FFC00841EED00971DDF00B81CD200E66B
:104C80001BC600201BBC00641AB200B219A8000A9F
:104C900019A0006A189900D117910040178B00B530
:104CA00016840031167E00B31579003A157300C7DB
:104CB000146F0058146A00EE136600881363002511
:104CC000135E00C7125B006C12570015125400C12E
:104CD00011510070114F0021114B00D61049008D69
:104CE0001047004610440002104200C00F400080F0
:104CF0000F3E00420F3C00060F3B00CB0E380093E6
:104D00000E37005C0E3500270E3400F30D3200C163
:104D10000D3100900D3000600D2E00320D2D00057C
:104D20000D2C00D90C2B00AE0C2900850C29005C41
:104D30000C2700350C27000E0C2600E80B2400C4BD
:104D40000B2400A00B23007D0B23005A0B210039FC
:104D50000B2100180B2000F80A1F00D90A1E00BB07
:104D60000A1E009D0A1D00800A1D00630A1C0047E0
:104D70000A1B002C0A1B00110A1A00F7091A00DD91
:104D8000091900C4091900AB091900920917007B21
:104D9000091800630917004C09160036091600208F
:104DA0000916000A091500F5081500E0081400CCE2
:104DB000081400B8081400A4081400900813007D1B
:104DC0000812006B0813005808120046081200343D
:104DD000081100230811001208110001081100F049
:104DE000071000E0071000D0071000C0071000B047
:104DF000070F00A107100091070E0083070F007432
:104E0000070F0065070E0057070E0049070E003B0D
:104E1000070D002E070E0020070D0013070D0006DA
:104E2000070D00F9060C00ED060D00E0060C00D49D
:104E3000060C00C8060C00BC060C00B0060C00A452
:104E4000060B0099060C008D060B0082060B0077FE
:104E5000060B006C060B0061060A0057060B004C9F
:104E6000060A0042060A0038060A002E060A002436
:104E7000060A001A060A001006090007060A00FDC5
:104E8000050900F4050900EB050900E2050900D950
:104E9000050900D0050900C7050900BE050900B5D0
:104EA000050800AD050800A50509009C050800944B
:104EB0000508008C050800840508007C05080074BE
:104EC0000508006C050700650508005D050700562C
:104ED0000508004E05070047050700400508003893
:104EE000050700310507002A050700230507001CF8
:104EF000050600160507000F050700080506000255
:104F0000050700FB040600F5040700EE040600E8B0
:104F1000040600E2040700DB040600D5040600CF07
:104F2000040600C9040600C3040600BD040600B759
:104F3000040600B1040500AC040600A6040600A0A7
:104F40000405009B04060095040500900406008AF1
:104F500004050085040500800406007A0405007538
:104F6000040500700405006B04050066040500617B
:104F70000405005C04050057040500520405004DBB
:104F800004050048040500430405003E0404003AFB
:104F900004050035040500300404002C0405002736
:104FA000040400230405001E0404001A040400166F
:104FB000040500110404000D0404000904050004A4
:104FC00004040000040400FC030400F8030400F4DB
:104FD000030400F0030400EC030400E8030400E40D
:104FE000030400E0030400DC030400D8030400D43D
:104FF000030400D0030400CC030400C8030300C56D
:1050000003030024F404D9201BC40C5C0E9804C4D0
:10501000095F0265077101F405F900FB04B300485C
:10502000048700C10369005803550003034500BE0F
:10503000023A008402310053022A002902250004AA
:10504000022000E4011C00C8011900AF01170098FC
:10505000011400840113007101100061011000515E
:10506000010E0043010D0036010B002B010B002047
:10507000010B00150109000C01090003010800FBE8
:10508000000800F3000800EB000700E4000600DE63
:10509000000600D8000600D2000600CC000500C7BC
:1050A000000500C2000500BD000400B9000400B501
:1050B000000400B1000400AD000400A9000400A534
:1050C000000300A20003009F0004009B000300985F
:1050D0000003009500020093000300900003008D80
:1050E0000002008B0003008800020086000200849A
:1050F000000300810002007F0002007D0002007BAF
:1051000000020079000200770001007600020074BE
:1051100000020072000100710002006F0002006DC9
:105120000001006C0002006A0001006900020067D3
:1051300000010066000100650001006400020062D9
:1051400000010061000100600001005F0002005DDD
:105150000001005C0001005B0001005A00010059E1
:1051600000010058000100570001005600010055E1
:1051700000010054000100530000005300010052E0
:1051800000010051000100500001004F0001004EDD
:105190000000004E0001004D0001004C0001004BDA
:1051A0000000004B0001004A0001004900010048D6
:1051B00000000048000100470001004600000046D2
:1051C00000010045000000450001004400010043CB
:1051D00000000043000100420000004200010041C5
:1051E00000000041000100400001003F0000003FBE
:1051F0000001003E0000003E0001003D0000003DB7
:105200000001003C0000003C0000003C0001003BAD
:105210000000003B0001003A0000003A00010039A4
:10522000000000390001003800000038000000389C
:105230000001003700000037000100360000003692
:105240000000003600010035000000350000003588
:10525000000100340000003400000034000100337D
:105260000000003300000033000100320000003273
:105270000000003200010031000000310000003168
:105280000001003000000030000000300001002F5D
:105290000000002F0000002F0000002F0001002E52
:1052A0000000002E0000002E0001002D0000002D47
:1052B0000000002D0000002D0001002C0000002C3B
:1052C0000000002C0000002C0001002B0000002B2F
:1052D0000000002B0000002B0001002A0000002A23
:1052E0000000002A0000002A000100290000002917
:1052F000000000290000002900000029000100280A
:1053000000000028000000280000002800000028FD
:1053100000010027000000270000002700000027F0
:1053200000000027000100260000002600000026E3
:1053300000000026000000260001002500000025D6
:1053400000000025000000250000002500000025C9
:1053500000010024000000240000002400000024BC
:1053600000000024000100230000002300000023AF
:1053700000000023000000230000002300000023A1
:105380000001002200000022000000220000002294
:105390000000002200000022000100210000002186
:1053A0000000002100000021000000210000002179
:1053B000000000210001002000000020000000206B
:1053C000000000200000002000000020000000205D
:1053D000000000200001001F0000001F0000001F4F
:1053E0000000001F0000001F0000001F0000001F41
:1053F0000001001E0000001E0000001E0000001E34
:105400000000004D383420582059205A2045004DC6
:105410006F766520617869730044697361626C65B9
:10542000207374657070657273004D383400426586
:1054300064204C6576656C696E6700473238205889
:10544000590A4D31303920533137350A4732382027
:105450005A0A4D31303920523134350A4731320A37
:105460004732390A4D313034205330004175746F62
:1054700020686F6D6500473238004D61696E004DE0
:105480003530320A4D353030004C6F616420736521
:105490007474696E677300526573746F7265206609
:1054A00061696C736166650053746F726520736522
:1054B0007474696E677300416476616E636564201D
:1054C00053657474696E6773004D61696E000A00FC
:1054D0003B20454550524F4D20496E6465783A2037
:1054E000005570646174696E67207A6F66667365D3
:1054F0007420696E20454550524F4D3A20000600F9
:10550000060006000600060006000600060006006B
:105510003FC01F800F00060006000F001F803FC025
:10552000060006000600060006000600060006004B
:10553000060007F8000C0C001002002001006001BA
:10554000804000804003E04001C0400080400000F7
:105550004000006000002000001000000C0C00075C
:10556000F80001FE0003030004008008004018005A
:10557000601000207C002038002010002000002057
:1055800000002000006000004000008003030001D4
:10559000FE00FFFFFF7F80FFC0FFC0FFC07F807F56
:1055A00080FFC0FFC0FFC03F001E000C005A204F0C
:1055B0006666736574005A204F66667365740046AC
:1055C0006C6F7700466C6F770046616E2073706574
:1055D00065640046616E20737065656400426564B1
:1055E00000426564004E6F7A7A6C65004E6F7A7A7D
:1055F0006C65005370656564005370656564004DAB
:1056000061696E004D6F766520580000002200250C
:105610000028002B002E003100340002010000059C
:105620000108010B0100002100240027002A002DA1
:10563000003000330001010000040107010A0105E8
:10564000050505070508080808020202020A0A08FB
:105650000804040404010101010101010103030321
:105660000303030303040707070C0C0C0C0C0C0CBE
:105670000C0202020206060606060606060B0B0BC5
:105680000B0B0B0B0B010210202008081020401000
:1056900020408002010201080402010102040810F6
:1056A0002040808040201008040201800402018014
:1056B000402010080402010804020101020408103D
:1056C0002040800102040810204080526573656EFE
:1056D000643A20002042002050006F6B0025753A8C
:1056E0002530327500253032753A25303275002567
:1056F000756420253032753A253032750020647289
:1057000069766572206F76657274656D7065726119
:1057100074757265207761726E696E67210A003A4E
:1057200020004B494C4C45442E20004B494C4C200A
:10573000636175736564206279204B494C4C20622B
:105740007574746F6E2F70696E0A004B494C4C452E
:10575000442E20004B494C4C2063617573656420D6
:10576000627920746F6F206D75636820696E616364
:10577000746976652074696D65202D206375727279
:10578000656E7420636F6D6D616E643A20005265C2
:10579000776970696E670050726F62696E67206624
:1057A00061696C65640050726F62696E6720666142
:1057B000696C65640050524F4245204641494C2077
:1057C000434C45414E204E4F5A5A4C450A005265B3
:1057D000776970696E670A005265776970696E67EC
:1057E0000050726F62696E67206661696C65640063
:1057F00050726F62696E67206661696C6564005003
:10580000524F4245204641494C20434C45414E2091
:105810004E4F5A5A4C450A005265776970696E6757
:105820000A0050726F62696E67206661696C656418
:105830000A0050726F62696E67206661696C656408
:1058400000205A3A200020593A200042656420582E
:105850003A200000000A0B02090C0D0E0807030491
:105860000100000000000000000000000000000037
:105870000000000000000000000000000000001216
:1058800011100000000000000000000000000000F7
:10589000000000000000000000486F6D65202573C7
:1058A00025732573206669727374002066697273AC
:1058B000740A005A0059005800486F6D6520004B6B
:1058C000494C4C45442E2000F6000ED511241FBE35
:1058D000CFEFD1E2DEBFCDBF00E00CBF14E0A0E00F
:1058E000B2E0E8EBFAE702E00BBF02C007900D92CE
:1058F000A234B107D9F727E1A2E4B4E001C01D92B8
:10590000A538B207E1F71CE2C5E6DCE200E006C01C
:1059100021970109802FFE010F94EA3BC436D1077D
:1059200080E00807A9F70E942A6D0D944B3D0C9466
:1059300000002F923F924F925F926F927F928F92D0
:105940009F92AF92BF92CF92DF92EF92FF920F930E
:105950001F93CF93DF93CDB7DEB7C658D1090FB6EB
:10596000F894DEBF0FBECDBF0091AD0820E6029FC8
:1059700080011124035D184F8091670A80FF1AC0CF
:10598000EBE5FEE084917F013FEFE31AF30A81111A
:1059900002C0780104C00F94372AF701F3CFD70172
:1059A0008D917D01882319F00F94372AF8CF8AE072
:1059B0000F94372A10926104109260048FE3809351
:1059C0006A04109269041092680410925C041092A8
:1059D0005D0410925E0410925F04F80180810F5FF5
:1059E0001F4F8032D1F38E34B1F4818190ED980F46
:1059F0009A3020F08D3211F08B3269F43296DF014B
:105A000031962C9120532A30D0F3CD01FC01019620
:105A100020812032D9F3F0932916E09328167F01D4
:105A2000BFEFEB1AFB0A10816AE270E0C7010F9426
:105A30001C3D009731F0FC01319780818032E1F309
:105A400011821D3429F0143519F0173409F0CAC039
:105A5000F70180812FEFE21AF20A8032C9F38053F6
:105A60008A3008F0BFC010936A0420916804309116
:105A700069044AE03196429FC001439F900D112472
:105A8000DF0111972C9130E020533109280F391F85
:105A9000808180538A3070F33093690420936804C6
:105AA000CF013196DC014C914032D1F31D34D1F459
:105AB0002E31310591F03CF42731310571F02C3154
:105AC000310581F40AC02537310564F027373105E7
:105AD00024F0203AE3E03E0729F490936104809398
